:100000000C948B000C94AA000C94AA000C94AA00E7
:100010000C94AA000C94AA000C94AA000C94AA00B8
:100020000C94AA000C94AA000C94AA000C94AA00A8
:100030000C94AA000C94FA000C94AA000C94AA0048
:100040000C94AA000C94AA000C94AA000C94AA0088
:100050000C94AA000C94AA000C94AA000C94AA0078
:100060000C94AA000C94AA000C94AA000C94AA0068
:100070000C94AA000C94AA000C94AA000C94AA0058
:100080000C94AA000C94AA000C94AA003B037E03D3
:100090007E037E037E037E037E037E037E037E0358
:1000A0007E037E037E037E037E037E037E037E0348
:1000B0007E037E037E037E037E037E037E037E0338
:1000C0007E037E037E037E037E037E037E037E0328
:1000D0007E037A037E037E037E037E037E037E031C
:1000E00073037E037E037E037E037E0377033F0359
:1000F000430347034B034F03530357035B035F0360
:100100007E037E037E037E037E037E037E03630302
:1001100067036B036F0311241FBECFEFD0E4DEBF74
:10012000CDBF11E0A0E0B1E0EEE5FBE000E00BBFE9
:1001300002C007900D92AA30B107D9F721E0AAE0DA
:10014000B1E001C01D92AB33B207E1F70E94E603B4
:100150000C94AD050C940000CF93DF93CDB7DEB7C0
:1001600081E890E02BE0FC01208388E890E02DE717
:1001700030E0FC01318320838FE690E022E0FC0137
:10018000208384E890E0FC011182108280910001BC
:1001900090910101A0910201B091030180930B01A4
:1001A00090930C01A0930D01B0930E018FE590E0A8
:1001B0002FE530E0F90120812068FC012083000058
:1001C000DF91CF910895CF93DF93CDB7DEB781E86C
:1001D00090E0FC0110820000DF91CF910895CF9351
:1001E000DF93CDB7DEB781E080930A010000DF9195
:1001F000CF9108951F920F9200905F000F921124EB
:1002000000905B000F922F933F934F935F936F93F8
:100210007F938F939F93AF93BF93EF93FF93CF936E
:10022000DF93CDB7DEB780910B0190910C01A091C7
:100230000D01B0910E010197A109B10980930B0145
:1002400090930C01A0930D01B0930E0180910B01CE
:1002500090910C01A0910D01B0910E01892B8A2B78
:100260008B2B91F40E94EF0080910001909101018D
:10027000A0910201B091030180930B0190930C01B6
:10028000A0930D01B0930E010000DF91CF91FF917B
:10029000EF91BF91AF919F918F917F916F915F91FE
:1002A0004F913F912F910F9000925B000F90009221
:1002B0005F000F901F901895CF93DF9300D000D070
:1002C000CDB7DEB769837A838B839C8389819A81DA
:1002D000AB81BC818093000190930101A093020146
:1002E000B09303018091000190910101A09102015E
:1002F000B091030180930B0190930C01A0930D0129
:10030000B0930E0100000F900F900F900F90DF91AF
:10031000CF910895CF93DF9300D01F92CDB7DEB772
:1003200089836A834B838B81882371F08A81282F8C
:1003300030E081E090E002C0880F991F2A95E2F733
:10034000982F8981892B0EC08A81282F30E081E087
:1003500090E002C0880F991F2A95E2F78195982FA7
:10036000898189230F900F900F90DF91CF9108958D
:10037000CF93DF9300D0CDB7DEB789836A838A81BC
:10038000282F30E081E090E002C0880F991F2A9565
:10039000E2F7982F898189230F900F90DF91CF91F9
:1003A0000895CF93DF93CDB7DEB72C970FB6F894AF
:1003B000DEBF0FBECDBF6D837E838F839887298775
:1003C0003A874B875C878D819E81AF81B88529856F
:1003D0003A854B855C85BC01CD010E948205DC011C
:1003E000CB0189839A83AB83BC8389819A81AB815A
:1003F000BC81892B8A2B8B2B29F489859A85AB8527
:10040000BC8511C089859A85AB85BC858D839E830B
:10041000AF83B88789819A81AB81BC8189879A87AC
:10042000AB87BC87D0CFBC01CD012C960FB6F8941A
:10043000DEBF0FBECDBFDF91CF9108950F931F9305
:10044000CF93DF93CDB7DEB708E210E040E064E081
:100450008FEF0E948A01F8018083000086E290E01D
:10046000FC018081809560E00E94B801882311F032
:1004700081E3D3C086E290E0FC018081809561E059
:100480000E94B801882311F084E3C7C086E290E09F
:10049000FC018081809562E00E94B801882311F000
:1004A00087E3BBC086E290E0FC018081809563E039
:1004B0000E94B801882311F08AE2AFC008E210E080
:1004C00040E065E08FEF0E948A01F8018083000020
:1004D00086E290E0FC018081809560E00E94B80196
:1004E000882311F082E399C086E290E0FC018081CC
:1004F000809561E00E94B801882311F085E38DC0EA
:1005000086E290E0FC018081809562E00E94B80163
:10051000882311F088E381C086E290E0FC018081AD
:10052000809563E00E94B801882311F080E375C0D4
:1005300008E210E040E066E08FEF0E948A01F801D7
:100540008083000086E290E0FC018081809560E07D
:100550000E94B801882311F083E35FC086E290E037
:10056000FC018081809561E00E94B801882311F030
:1005700086E353C086E290E0FC018081809562E0D2
:100580000E94B801882311F089E347C086E290E019
:10059000FC018081809563E00E94B801882311F0FE
:1005A00083E23BC008E210E040E067E08FEF0E948A
:1005B0008A01F8018083000086E290E0FC018081DE
:1005C000809560E00E94B801882311F081E425C085
:1005D00086E290E0FC018081809561E00E94B80194
:1005E000882311F082E419C086E290E0FC0180814A
:1005F000809562E00E94B801882311F083E40DC069
:1006000086E290E0FC018081809563E00E94B80161
:10061000882311F084E401C080E0DF91CF911F9125
:100620000F910895CF93DF9300D0CDB7DEB79A83B3
:1006300089838091370190913801892B09F069C035
:100640000E941E0280930F0180910F01882F90E07D
:10065000092E000CAA0BBB0B40E050E024E430E074
:10066000841B950B2817390708F448C08A5B9F4FF5
:10067000FC010C94A4058FE18093100145C081E03A
:100680008093100141C082E0809310013DC083E05F
:100690008093100139C084E08093100135C085E05B
:1006A0008093100131C086E0809310012DC087E057
:1006B0008093100129C088E08093100125C089E053
:1006C0008093100121C08AE0809310011DC08BE04F
:1006D0008093100119C08CE08093100115C08DE04B
:1006E0008093100111C08EE0809310010DC0109214
:1006F00010010AC08FE08093100106C085E290E0EF
:100700002BE1FC0120830000109238011092370188
:1007100005C0109238011092370100008091370116
:10072000909138010F900F90DF91CF910895CF9362
:10073000DF9300D0CDB7DEB79A83898389819A8110
:10074000892B79F40E941E0280931301809112017B
:10075000882319F41092110107C081E080931101E0
:1007600003C01A821982000089819A810F900F902C
:10077000DF91CF910895CF93DF9300D01F92CDB733
:10078000DEB79B838A838A819B81892B79F4809150
:100790001101882F90E09695982F88279795879537
:1007A000982F80911001892B898303C01B821A82A4
:1007B000000085E290E02981FC0120838A819B81F1
:1007C0000F900F900F90DF91CF9108950F931F938B
:1007D000CF93DF93CDB7DEB761970FB6F894DEBF46
:1007E0000FBECDBF81E290E0FC01108282E290E07A
:1007F0002FEFFC01208384E290E02FEFFC012083A7
:1008000085E290E0FC01108287E290E020EFFC019D
:10081000208388E290E02FE0FC01208386E0E4E082
:10082000F1E0DE011C9601900D928A95E1F783E0DC
:1008300090E09A8789871B868B858093140182E3D9
:1008400090E0A0E0B0E08093150190931601A09392
:100850001701B09318018091150190911601A09194
:100860001701B09118018093190190931A01A09378
:100870001B01B0931C0182E193E090931E018093D1
:100880001D018B8580931F0182E390E0A0E0B0E022
:100890008093200190932101A0932201B093230122
:1008A0008091200190912101A0912201B09123011A
:1008B0008093240190932501A0932601B0932701F2
:1008C00087E993E090932901809328018B85809399
:1008D0002A0182E390E0A0E0B0E080932B019093A6
:1008E0002C01A0932D01B0932E0180912B019091AA
:1008F0002C01A0912D01B0912E0180932F01909396
:100900003001A0933101B09332018BEB93E09093CF
:1009100034018093330162E370E080E090E00E9454
:100920005C010E94AC008C859D85FC0181819281D7
:10093000A381B48189839A83AB83BC8381E090E0F7
:100940009E838D8325C08D819E81880F991F9E0176
:100950002F5F3F4F820F931F0B96FC018081918187
:10096000FC01218132814381548189819A81AB814B
:10097000BC81BC01CD010E94D101DC01CB01898386
:100980009A83AB83BC838D819E8101969E838D83E8
:100990002D813E8189859A8528173907A0F218860E
:1009A0001F82A0C08F819885880F991F9E012F5F9D
:1009B0003F4F820F931F0B96FC0180819181FC01B8
:1009C00025813681478150858F819885880F991FB1
:1009D000BE016F5F7F4F860F971F0B96FC018081D2
:1009E0009181FC0181819281A381B481281739070B
:1009F0004A075B0709F045C08F819885880F991FCA
:100A00009E012F5F3F4F820F931F0B96FC010081C9
:100A100011818F819885880F991F9E012F5F3F4F0D
:100A2000820F931F0B96FC0180819181FC0121852F
:100A300032858F819885880F991FAE014F5F5F4F78
:100A4000840F951F0B96FC0180819181FC018081B0
:100A5000082E000C990BF9010995F80180838F810C
:100A60009885880F991F9E012F5F3F4F820F931F1C
:100A70000B96FC0180819181FC0115821682178200
:100A800010868F819885880F991F9E012F5F3F4F99
:100A9000820F931F0B96FC01608171818F81988575
:100AA000880F991F9E012F5F3F4F820F931F0B9658
:100AB000FC0180819181FC0125813681478150852F
:100AC00089819A81AB81BC81820F931FA41FB51FBE
:100AD000FB0185839683A783B0878F8198850196D4
:100AE00098878F832F81388589859A8528173907BC
:100AF00008F458CF000080910A018823E1F3109296
:100B00000A014DCFA1E21A2EAA1BBB1BFD010DC08D
:100B1000AA1FBB1FEE1FFF1FA217B307E407F507AD
:100B200020F0A21BB30BE40BF50B661F771F881F89
:100B3000991F1A9469F760957095809590959B011F
:100B4000AC01BD01CF010895EE0FFF1F0024001C72
:0E0B50000BBE0790F691E02D0994F894FFCFAC
:0A0B5E000100000014011F012A012C
:00000001FF
